:020000040000FA
:1000000058100010A9010000B1010000B301000068
:10001000B5010000B7010000B901000000000000B8
:10002000000000000000000000000000BB01000014
:10003000BD01000000000000BF010000C101000080
:10004000C301000015120000BD120000C301000032
:10005000C30100009B060000C3010000C3010000B3
:10006000C3010000C3010000C3010000C301000080
:10007000C3010000C3010000C3010000C301000070
:10008000C3010000C3010000C3010000C301000060
:10009000C3010000C3010000C3010000C301000050
:1000A000C3010000C3010000C3010000C301000040
:1000B000C3010000C3010000C3010000C301000030
:1000C000C3010000C3010000C301000000F002F8FA
:1000D00000F05AF80AA090E8000C82448344AAF188
:1000E0000107DA4501D100F04FF8AFF2090EBAE886
:1000F0000F0013F0010F18BFFB1A43F0010318475C
:100100006C1300008C1300000A444FF0000C10F830
:10011000013B13F0070408BF10F8014B1D1108BF85
:1001200010F8015B641E05D010F8016B641E01F825
:10013000016BF9D113F0080F1EBF10F8014BAD1C75
:100140000C1B09D16D1E58BF01F801CBFAD505E093
:1001500014F8016B01F8016B6D1EF9D59142D6D3ED
:10016000704700000023002400250026103A28BF15
:1001700078C1FBD8520728BF30C148BF0B60704719
:100180001FB51FBD10B510BD01F038F91146FFF7BE
:10019000F7FF00F027F801F056F903B4FFF7F2FF7C
:1001A00003BC01F05BF9000009488047094800479B
:1001B000FEE7FEE7FEE7FEE7FEE7FEE7FEE7FEE717
:1001C000FEE7FEE704480549034A054B7047000077
:1001D00039040000CD000000580E00105810001027
:1001E000580E001001F0BBF801F02FF800F076FC7B
:1001F00000F0FAFA164802681648016816480068C6
:1002000000F0D8F901F0D4F801F0CEF800F075FF55
:100210001DE012480078592819D1C821104800F073
:1002200021F80B4B1B685B1C094C1A462360094BD9
:100230001B685B1C074C19462360074B1B685B1C43
:10024000054C1846236000F0B5F900F056FFE0E7D2
:10025000900100108C010010880100102101001095
:10026000DC0100104FF000020429C0F0128010F0F1
:10027000030C00F01E80CCF1040CBCF1020F18BF7F
:1002800000F8012BA8BF20F8022BA1EB0C0100F015
:1002900010B85FEAC17C24BF00F8012B00F8012BE5
:1002A00048BF00F8012B70477047704770474FF008
:1002B000000200B5134694469646203922BFA0E8B6
:1002C0000C50A0E80C50B1F12001BFF4F7AF0907C2
:1002D00028BFA0E80C5048BF0CC05DF804EB8900B3
:1002E00028BF40F8042B08BF704748BF20F8022BF6
:1002F00011F0804F18BF00F8012B7047FFFFFFFF80
:1003000098480068C0F30160032864D196480068EB
:1003100010F0030006D0012823D002283FD0032884
:1003200058D100E000BF8F480068C0F30E0000F114
:1003300001004FEA40008D4900FB01F08C49D1F8E3
:100340008810C1F3074101F10101B0FBF1F18948C7
:100350000068C0B200F10100B1FBF0F0864908600E
:1003600038E080480068C0F30E0000F101004FEA59
:100370004000824900FB01F07D49D1F88810C1F3AB
:10038000074101F10101B0FBF1F17A480068C0B208
:1003900000F10100B1FBF0F0774908601AE0714804
:1003A0000068C0F30E0000F101004FEA0041704800
:1003B000D0F88800C0F3074000F10100B1FBF0F174
:1003C0006C480068C0B200F10100B1FBF0F06A496E
:1003D000086000BF2FE06448006810F0030006D0FA
:1003E000012810D0022819D0032823D100E000BF33
:1003F00060480068C0B200F101005C49B1FBF0F058
:100400005D49086016E05B480068C0B200F1010079
:100410005A49B1FBF0F0584908600BE055480068B4
:10042000C0B200F101004FF40041B1FBF0F05249BD
:10043000086000BF00BF70474FF0407001142022D9
:100440004F4B1A604A4AD2F8A02112F0200F05D073
:1004500000BF4B4A126812F0400FFAD00322454BFE
:100460001A604FF48812424BC3F8A8214FF48062FF
:10047000444B1A604FF001023B4B1A60424A434B17
:100480001A604FF0AA02424B1A604FF055021A60F0
:100490004FF001023F4B1A604FF0AA023C4B1A602A
:1004A0004FF05502324BC3F88C2000BF2D4A126822
:1004B00012F0806FFAD00322364B1A604FF0AA0276
:1004C0002B4BC3F88C204FF05502314B1A6000BF04
:1004D000244A126802F04072B2F1407FF8D1232220
:1004E0002D4B1A604FF0AA02214BC3F8AC204FF0FD
:1004F00055022A4B1A604FF00102294B1A604FF047
:10050000AA02264B1A604FF05502194BC3F8AC20D3
:1005100000BF244A126812F4806FFAD00322204BE5
:100520001A604FF0AA02124BC3F8AC204FF05502EC
:100530001A4B1A6000BF1B4A126802F44072B2F5EF
:10054000407FF8D1184A194B1A604FF00002084B4F
:10055000C3F8C82143F23A021A604FF00002144B6C
:100560001A60704788C00F400CC10F4000093D0061
:1005700000C00F4004C10F4000000010001BB70076
:10058000A0C10F40ACC10F406300050084C00F4004
:100590008CC00F4080C00F40A4C00F40ACC00F40C3
:1005A000A0C00F40A8C00F40DE872804C4C00F4081
:1005B00008ED00E070B58AB006460C46154607A95E
:1005C000284600F03DFA04A9204600F039FA01A9B6
:1005D000304600F035FA11A000F0D0FA124800F0D1
:1005E000CDFA12A000F0CAFA144800F0C7FA14A01D
:1005F00000F0C4FA07A800F0C1FA15A000F0BEFA96
:1006000004A800F0BBFA15A000F0B8FA01A800F0A9
:10061000B5FA14A000F0B2FA0AB070BD47455420F4
:100620002F696E7075742F00040000103F7072699E
:10063000766174655F6B65793D00000022000010F3
:100640002674656D70657261747572653D00000099
:100650002668756D69646974793D000026636F32A0
:100660003D0000000D0A486F73743A646174612E96
:10067000737061726B66756E2E636F6D0D0A0D0A75
:100680000D0A000006E0794900E0491E0029FCD16E
:10069000401E00BF0028F6D1704710B5744880682E
:1006A00000F00F03022B1AD1002412E071480068F9
:1006B0007149096888420AD06E48006800786C4920
:1006C00008706C480068401C6A49086000E010240B
:1006D000641C102CEAD30120FFF7D4FF00BF042BC9
:1006E00019D113E0624800786449087064480068D2
:1006F00064490968884209D86048007860490968F7
:1007000008705F480068401C5D4908605848007DDB
:1007100010F0010FE6D110BD5B48006840F0080002
:100720005A49C1F8C4000846D0F8A80120F0C0001A
:10073000C1F8A8015648006840F0500054490860CC
:100740000846006820F0A00008604948007A40F0A0
:100750000700474908724FF083000873084690F875
:10076000280020F0010081F82800084690F82800B1
:1007700020F0E00081F82800084690F8280040F0BA
:100780001000444908704FF00E00394908704FF0CE
:10079000000008710846007B20F0800008730846BE
:1007A000406840F0010048600846406820F00200C0
:1007B00048604FF0E020D0F8000140F020004FF0FA
:1007C000E021C1F80001704733483449086000F562
:1007D00016702C49086031480068294908602F4884
:1007E00000682F490860704710B5FFF7EDFFFFF76D
:1007F00093FF10BD30B504460023002510E01E48CD
:1008000000682849096888420AD018465B1C205CA9
:1008100019490968087018480068401C16490860A2
:10082000E05C0028EBD11D46002310E01148006871
:1008300011490968884209D00E48006800780C49BF
:1008400008700C480068401C0A4908605B1C102BAB
:10085000ECD30120FFF716FF102D05D9044840689E
:1008600040F002000249486030BD000020A10700AE
:1008700000C00040BC010010B801001018010010B9
:10088000100100100C010010C4C00F4000C00F4048
:1008900000C0024028C00040A4020010080100105F
:1008A00014010010B401001002460021505C08B988
:1008B0000020704700E0491C505C0028FBD108462E
:1008C000F7E72DE9F04180460D460024002340461D
:1008D000FFF7EAFF06462846FFF7E6FF074606B1A0
:1008E0001FB96FF00100BDE8F081002414E000237F
:1008F00007E0E01818F80000E95C884200D005E045
:100900005B1CBB4202D2E018B042F2D300BFBB4234
:1009100001D12046E7E7641CB442E8D34FF0FF3032
:10092000E1E72DE9F04104460D4616462846FFF75B
:10093000BBFF07463046FFF7B7FF8046002308E0BD
:10094000F05CE118695C884202D04E20BDE8F0817D
:100950005B1C434502D21819B842F1D3434502D378
:100960001819B84201D24E20F0E75920EEE7F0B551
:10097000054600242846FFF797FF06464E270EB986
:10098000A01EF0BD002448E0285D452826D004DCE8
:100990003E2812D0432839D114E04F282AD072289B
:1009A00034D1F7A229462046FFF7BBFF592803D1CF
:1009B0000020F5490870592729E00120F249087004
:1009C000592724E0F1A229462046FFF7AAFF59281B
:1009D00003D10220EC490870592718E0EEA22946FD
:1009E0002046FFF79EFF592803D10320E6490870EF
:1009F00059270CE0EAA229462046FFF792FF592822
:100A000003D10420E0490870592700E000BF00BF6F
:100A1000592F01D10120B4E7641CB442B4D305209E
:100A2000D9490870801FACE70246002000BF02E0F1
:100A30000B5C1354401C0B5C002BF9D11354704712
:100A4000F0B5024601200024002302E000EB8005FF
:100A50006800B2FBF0F50A2DF8D20EE0B2FBF0F41C
:100A6000B2FBF0F500FB15220A25B0FBF5F004F10E
:100A70003005EFB21D465B1C4F550028EED1002516
:100A8000CD54F0BD10B50022C74B1A6004E0C64A31
:100A90001268521CC44B1A60C34A1268825C002A56
:100AA000F5D1C24B1A600DE0C04A12688A5CBE4B99
:100AB0001B68BE4C24682344C254BC4A1268521CB2
:100AC000BA4B1A60B94A12688A5C002AECD1B64B5C
:100AD0001B68B64C24682344C25410BDB448B549C1
:100AE000086000F51670B4490860B2480068B34960
:100AF0000860B0480068B2490860B248B24908606E
:100B000000F51670B1490860AF480068B049086048
:100B1000AD480068AF490860AF48B049086000F5CB
:100B20001670AF490860AD480068AE490860AB4830
:100B30000068AD490860704730B500240025ABA1BE
:100B40009B48FFF7BEFE0446AAA19948FFF7B9FEED
:100B5000054610E0A3480068A1490968884209D009
:100B60009348005D9F49096808709E480068401CD2
:100B70009C490860641CAC42ECD330BD30B50146E2
:100B800000209E4B1A6809E00B5C84189C4D2B5585
:100B90009A4B1B685B1C994C2360401C0B5C002B20
:100BA000F2D130BD30B502460B460021192400BFFA
:100BB00011E001EB4100934D285C90420AD101EB1A
:100BC000410028444078984204D101EB4100284478
:100BD000807830BD491CA142EBD30220F9E710B563
:100BE0007348FFF7C4FE012802D1592086490870D6
:100BF00085480078592871D1844800780B286ED236
:100C0000DFE800F006111D293571A7B3BDBCBB009C
:100C10005D48007818B900207D49087002E0022084
:100C20007B49087028E158480078042803D1002047
:100C30007749087002E00120754908701CE15248AC
:100C40000078042803D100207149087002E00120D7
:100C50006F49087010E14C480078042803D1002047
:100C60006B49087002E001206949087004E169A13C
:100C70004F48FFF726FE002807DB4348007804288A
:100C800030D10020624908702CE066A14848FFF787
:100C900018FE66490860464964480068C01D085C43
:100CA0003038634908600846006801280ED00228E1
:100CB00004D0032806D0042812D10BE003205449A5
:100CC00008700EE00420524908700AE002205049E2
:100CD000087006E005204E49087002E00DE1CAE008
:100CE00000BF00BFC8E02848007804282DD151A1DA
:100CF0002F48FFF7E6FD4D4908602D494B48006835
:100D0000C01D085C30384A4908600846006802285F
:100D100006D0032808D004280AD0052810D10BE0FB
:100D200003203B4908700FE00420394908700BE0AC
:100D300005203749087007E006203549087003E0B0
:100D400002203349087000BF02E0022030490870D9
:100D500092E00D480078042803D100202C49087047
:100D600002E002202A49087086E00748007801283E
:100D700064D100202649087063E06FE06FE061E015
:100D800072656164790D0A0029010010434C4F53CC
:100D900045440D0A000000004552524F520D0A0012
:100DA0004F4B0D0A00000000D4010010D8010010C4
:100DB000FC040010A0010010A4010010A801001004
:100DC000AC01001054070010B0010010B401001075
:100DD000B8010010BC010010AC090010C0010010E7
:100DE000C4010010C8010010CC0100102B49504470
:100DF00000000000434C4F53454400007C010010AC
:100E0000DC0100102E010010220100102B01001047
:100E10009C0100105749464920434F4E4E454354CC
:100E2000454400002B43574A41503A0080010010CE
:100E3000840100105354415455533A000220B649DE
:100E4000087019E0B5480078042803D10020B249A1
:100E5000087002E00220B04908700DE00CE0FFF7D6
:100E60006BFE0020AC4908705920AD4908704E2037
:100E7000AC49087000E000BF00BFA7480178AA484D
:100E80000078FFF78FFEA949087000F006FAA6481F
:100E90000078082820D04FF41671A548FFF7E2F932
:100EA000A4480068A4490860A2480068A3490860F3
:100EB000A3480068A349096888421AD34FF4167101
:100EC000A148FFF7CFF9A14800689D4908609F48F5
:100ED00000689C4908600CE04FF416719C48FFF7CD
:100EE000C1F99C4800689C4908609A4800689B4981
:100EF00008604E209A49087010BD8C4800780A2876
:100F000000D1F9E700BFF7E714E08E4800680078E9
:100F10008949096808708B480068401C8949086045
:100F200085480068401C844908608E480088401C41
:100F30008C49088083480068814909688842E4D365
:100F400070473EB5794800780B2874D2DFE800F08E
:100F5000062A1D3744515E7499A6B600824800687F
:100F6000401C8149086008460068052802D35920C2
:100F70007E4908707EA0FFF73DFC6C4800786A4906
:100F800008700A20694908709AE07CA0FFF732FCDB
:100F900066480078644908700A206449087000F0C7
:100FA00077F98DE077A0FFF725FC604800785E496F
:100FB00008700A205D49087000F06AF980E073A0AB
:100FC000FFF718FC59480078574908700A2057491C
:100FD000087000F05DF973E05448007852490870D9
:100FE0000A20524908706DA0FFF704FC00F050F988
:100FF00066E073A0FFF7FEFB4C4800784A49087092
:101000000A204A49087000F043F959E070A1744879
:10101000FFF70AFD73497248FFF734FD7048FFF788
:10102000E9FB42480078404908700A203F490870AF
:1010300000F02EF944E042E06B48FFF735FC04462F
:101040006946FFF7FDFC4FF4FA716548FFF70AF9AE
:1010500066A16348FFF7E8FC69466148FFF712FDA7
:1010600049A15F48FFF70EFD5D48FFF7C3FB2F481E
:1010700000782D4908700A202C49087000F008F902
:101080001EE05948FFF7B6FB28480078264908704B
:101090000A202649087000F0FBF811E05648006865
:1010A000401C55490860214800781F4908700A20F3
:1010B0001E49087000205149086001E000E000BFAF
:1010C00000BF4F48406820F002004D4948604FF48F
:1010D00016714C48FFF7C6F84B4800684B4908604A
:1010E000494800684A4908603EBD10B5FFF729FF2E
:1010F000FFF70AFFFFF773FD10BD10B509E00848C0
:101100000078592803D14E200549087002E0FFF706
:10111000ECFFF4E700BF10BD9C0100102901001096
:1011200020010010210100102B0100102A010010E5
:10113000FC040010A0010010A8010010AC01001078
:101140001001001014010010A4020010080100108A
:10115000AC090010C0010010C8010010CC01001043
:10116000220100102C010010940100102801001031
:1011700041542B5253540D0A0000000041540D0AF3
:1011800000000000415445310D0A000041542B433A
:10119000574D4F44453D310D0A00000041542B434B
:1011A000574A41503D224546462D57494649222C33
:1011B0002265666640726F6E696373220D0A0000D5
:1011C00041542B4349505354415455530D0A000088
:1011D00041542B43495053544152543D00000000A8
:1011E000040C0010A4000010DC01001041542B433B
:1011F000495053454E443D00240100107C0100102D
:1012000000C0004054070010B0010010B8010010E9
:10121000BC0100104FF04020006810F0010F13D007
:1012200000202049087002204FF040214860084605
:10123000006840F0010008601B48006840F00200B0
:101240004FF0E021C1F8800270471848006840F074
:1012500002001749C1F8C4000846D0F8A80120F0E0
:101260000C001449086014484FF0402188614FF089
:10127000050048614FF0000048604FF0E020D0F8D2
:10128000000140F002004FF0E021C1F8000170477A
:1012900001204FF040214860704702204FF040216C
:1012A000486070472A01001080E200E0C4C00F408F
:1012B00000C00F40A8C10F408093DC1410B502207D
:1012C0003D4948603D480078592804D13C480068B1
:1012D000401C3B4908603A4800680A2805D14E2066
:1012E000364908700020364908604FF416713548B9
:1012F000FEF7B8FF34480068344908603248006897
:1013000033490860334800683349096888420CD380
:101310004FF416713148FEF7A5FF314800682D499A
:1013200008602F4800682C4908602348006840F096
:101330000100214908602B48006840F004004FF08C
:10134000E021C1F880024FF001001B4948601B48B2
:1013500000784E2802D159202349087010BD234837
:10136000006840F004002249C1F8C4000846D0F8E3
:10137000A80120F030001F4908604FF063000E49BB
:10138000C8601D4888614FF0050048614FF00000BB
:1013900048604FF0E020D0F8000140F004004FF02A
:1013A000E021C1F8000170470120034948607047FF
:1013B0000220014948607047008000402801001069
:1013C00098010010FC040010A0010010A8010010FA
:1013D000AC0100101001001014010010A402001054
:1013E0000801001080E200E021010010C4C00F409D
:1013F00000C00F40A8C10F40C0E1E400754600F0F6
:1014000029F8AE4605006946534620F00700854698
:1014100018B020B5FEF7D6FEBDE820404FF000061C
:101420004FF000074FF000084FF0000B21F00701CC
:10143000AC46ACE8C009ACE8C009ACE8C009ACE80F
:10144000C0098D4670470446AFF300802046FEF782
:10145000A4FE000000487047F80D00100149182054
:10146000ABBEFEE726000200704700008C140000AF
:1014700000000010DC010000080100004C15000015
:10148000DC0100107C0E00006401000011A018E1D6
:10149000F505354A58764D6F6F72783474676A4D2A
:1014A0006E716A513032A015374261346E3838316E
:1014B000786F6665597870455962307900184D2209
:1014C0004546462D57494649222C2265666640729C
:1014D0006F6E696373221D225443505F00185E646F
:1014E0006174612E737061726B66756E2E636F6DC1
:1014F000222C38300D0A4C4E4E4E0862051A02025C
:101500001201160201010102160302010203160470
:101510000301030428080504020404030401101352
:10152000050405020505030605050605040705066D
:1015300004061607060206071608070206081E0913
:0C1540000802060946E19A010401480077
:04000005000001A94D
:00000001FF
